:060000000A128A110C280F
:10000800FE00030EF6000A08F7000A128A112128DA
:100018000A128A110F280A128A1111210A128A114A
:10002800FA000A128A1112210A128A11FB00F80139
:10003800F90183010A128A11D428831203130C1FB1
:10004800262827283A281F0CF400740C0F39003A88
:10005800031D2F28302839281E08F400F5017408DC
:10006800F8007508F900780887000C130B1C3D2868
:100078003E288B2806184128422846280130FA00D5
:100088000030FB00861849284A285928FA01FB0144
:100098000130F0000030F1000A128A11FF200A1224
:1000A8008A11700883120313880006195C285D28DA
:1000B80079280130F0000030F1007908F300780861
:1000C800F2000A128A11EB200A128A11FA01FB01C6
:1000D8000130F0000030F1000A128A11FF200A12E4
:1000E8008A11700883120313880086197C287D28DA
:1000F8008A280130F0000030F1000A128A11FF202E
:100108000A128A1170088312031388000B107708EB
:100118008A00760E8300FE0E7E0E090001308316DB
:1001280003178800890101308316031385008701AE
:10013800880183120313850187018801831603133D
:1001480081130F3095000F3096000F088F396038F3
:100158008F000F14831203131F083F3940389F0084
:10016800831603131F129F12C330831203139F05B4
:10017800831603139F13831203131F140C30831267
:100188000313A000A00BC6280000831203130C134E
:10019800831603130C170B108B150B178B170800FE
:1001A8000A128A1192200A128A117A037B04031D0B
:1001B800DE28DF28E0286300831203139F18E52850
:1001C800E628D9289F14D9280A128A110C28700801
:1001D800831203178D0072088C00831603178C1383
:1001E8000C158B1355308D00AA308D008C140C1112
:1001F8000B108B1708007008831203178D008316E5
:1002080003178C130C14831203170C08F200F30164
:0E0218007208F0007308F10008000234003490
:08400000FF3FFF3FFF3FFF3FC0
:04400E00D420FF3F7C
:00000001FF
